{
  "_format": "hh-sol-artifact-1",
  "contractName": "ReferralNft",
  "sourceName": "contracts/ReferralNft.sol",
  "abi": [
    {
      "inputs": [],
      "stateMutability": "nonpayable",
      "type": "constructor"
    },
    {
      "anonymous": false,
      "inputs": [
        {
          "indexed": true,
          "internalType": "address",
          "name": "owner",
          "type": "address"
        },
        {
          "indexed": true,
          "internalType": "address",
          "name": "approved",
          "type": "address"
        },
        {
          "indexed": true,
          "internalType": "uint256",
          "name": "tokenId",
          "type": "uint256"
        }
      ],
      "name": "Approval",
      "type": "event"
    },
    {
      "anonymous": false,
      "inputs": [
        {
          "indexed": true,
          "internalType": "address",
          "name": "owner",
          "type": "address"
        },
        {
          "indexed": true,
          "internalType": "address",
          "name": "operator",
          "type": "address"
        },
        {
          "indexed": false,
          "internalType": "bool",
          "name": "approved",
          "type": "bool"
        }
      ],
      "name": "ApprovalForAll",
      "type": "event"
    },
    {
      "anonymous": false,
      "inputs": [
        {
          "indexed": true,
          "internalType": "address",
          "name": "from",
          "type": "address"
        },
        {
          "indexed": true,
          "internalType": "address",
          "name": "to",
          "type": "address"
        },
        {
          "indexed": true,
          "internalType": "uint256",
          "name": "tokenId",
          "type": "uint256"
        }
      ],
      "name": "Transfer",
      "type": "event"
    },
    {
      "inputs": [],
      "name": "_tokenIds",
      "outputs": [
        {
          "internalType": "uint256",
          "name": "_value",
          "type": "uint256"
        }
      ],
      "stateMutability": "view",
      "type": "function"
    },
    {
      "inputs": [
        {
          "internalType": "address",
          "name": "to",
          "type": "address"
        },
        {
          "internalType": "uint256",
          "name": "tokenId",
          "type": "uint256"
        }
      ],
      "name": "approve",
      "outputs": [],
      "stateMutability": "nonpayable",
      "type": "function"
    },
    {
      "inputs": [
        {
          "internalType": "address",
          "name": "owner",
          "type": "address"
        }
      ],
      "name": "balanceOf",
      "outputs": [
        {
          "internalType": "uint256",
          "name": "",
          "type": "uint256"
        }
      ],
      "stateMutability": "view",
      "type": "function"
    },
    {
      "inputs": [
        {
          "internalType": "uint256",
          "name": "tokenId",
          "type": "uint256"
        }
      ],
      "name": "getApproved",
      "outputs": [
        {
          "internalType": "address",
          "name": "",
          "type": "address"
        }
      ],
      "stateMutability": "view",
      "type": "function"
    },
    {
      "inputs": [
        {
          "internalType": "address",
          "name": "owner",
          "type": "address"
        },
        {
          "internalType": "address",
          "name": "operator",
          "type": "address"
        }
      ],
      "name": "isApprovedForAll",
      "outputs": [
        {
          "internalType": "bool",
          "name": "",
          "type": "bool"
        }
      ],
      "stateMutability": "view",
      "type": "function"
    },
    {
      "inputs": [
        {
          "internalType": "string",
          "name": "tokenURI",
          "type": "string"
        }
      ],
      "name": "mintNft",
      "outputs": [
        {
          "internalType": "uint256",
          "name": "",
          "type": "uint256"
        }
      ],
      "stateMutability": "nonpayable",
      "type": "function"
    },
    {
      "inputs": [],
      "name": "name",
      "outputs": [
        {
          "internalType": "string",
          "name": "",
          "type": "string"
        }
      ],
      "stateMutability": "view",
      "type": "function"
    },
    {
      "inputs": [
        {
          "internalType": "uint256",
          "name": "tokenId",
          "type": "uint256"
        }
      ],
      "name": "ownerOf",
      "outputs": [
        {
          "internalType": "address",
          "name": "",
          "type": "address"
        }
      ],
      "stateMutability": "view",
      "type": "function"
    },
    {
      "inputs": [
        {
          "internalType": "address",
          "name": "from",
          "type": "address"
        },
        {
          "internalType": "address",
          "name": "to",
          "type": "address"
        },
        {
          "internalType": "uint256",
          "name": "tokenId",
          "type": "uint256"
        }
      ],
      "name": "safeTransferFrom",
      "outputs": [],
      "stateMutability": "nonpayable",
      "type": "function"
    },
    {
      "inputs": [
        {
          "internalType": "address",
          "name": "from",
          "type": "address"
        },
        {
          "internalType": "address",
          "name": "to",
          "type": "address"
        },
        {
          "internalType": "uint256",
          "name": "tokenId",
          "type": "uint256"
        },
        {
          "internalType": "bytes",
          "name": "_data",
          "type": "bytes"
        }
      ],
      "name": "safeTransferFrom",
      "outputs": [],
      "stateMutability": "nonpayable",
      "type": "function"
    },
    {
      "inputs": [
        {
          "internalType": "address",
          "name": "operator",
          "type": "address"
        },
        {
          "internalType": "bool",
          "name": "approved",
          "type": "bool"
        }
      ],
      "name": "setApprovalForAll",
      "outputs": [],
      "stateMutability": "nonpayable",
      "type": "function"
    },
    {
      "inputs": [
        {
          "internalType": "bytes4",
          "name": "interfaceId",
          "type": "bytes4"
        }
      ],
      "name": "supportsInterface",
      "outputs": [
        {
          "internalType": "bool",
          "name": "",
          "type": "bool"
        }
      ],
      "stateMutability": "view",
      "type": "function"
    },
    {
      "inputs": [],
      "name": "symbol",
      "outputs": [
        {
          "internalType": "string",
          "name": "",
          "type": "string"
        }
      ],
      "stateMutability": "view",
      "type": "function"
    },
    {
      "inputs": [
        {
          "internalType": "uint256",
          "name": "tokenId",
          "type": "uint256"
        }
      ],
      "name": "tokenURI",
      "outputs": [
        {
          "internalType": "string",
          "name": "",
          "type": "string"
        }
      ],
      "stateMutability": "view",
      "type": "function"
    },
    {
      "inputs": [
        {
          "internalType": "address",
          "name": "from",
          "type": "address"
        },
        {
          "internalType": "address",
          "name": "to",
          "type": "address"
        },
        {
          "internalType": "uint256",
          "name": "tokenId",
          "type": "uint256"
        }
      ],
      "name": "transferFrom",
      "outputs": [],
      "stateMutability": "nonpayable",
      "type": "function"
    }
  ],
  "bytecode": "0x60806040523480156200001157600080fd5b506040518060400160405280600981526020017f726566657272616c7300000000000000000000000000000000000000000000008152506040518060400160405280600281526020017f5246000000000000000000000000000000000000000000000000000000000000815250816000908051906020019062000096929190620000b8565b508060019080519060200190620000af929190620000b8565b505050620001cd565b828054620000c69062000168565b90600052602060002090601f016020900481019282620000ea576000855562000136565b82601f106200010557805160ff191683800117855562000136565b8280016001018555821562000136579182015b828111156200013557825182559160200191906001019062000118565b5b50905062000145919062000149565b5090565b5b80821115620001645760008160009055506001016200014a565b5090565b600060028204905060018216806200018157607f821691505b602082108114156200019857620001976200019e565b5b50919050565b7f4e487b7100000000000000000000000000000000000000000000000000000000600052602260045260246000fd5b612bbb80620001dd6000396000f3fe608060405234801561001057600080fd5b50600436106100f55760003560e01c806370a0823111610097578063b88d4fde11610066578063b88d4fde14610284578063c87b56dd146102a0578063da86f4a9146102d0578063e985e9c514610300576100f5565b806370a08231146101fc57806395d89b411461022c578063a22cb4651461024a578063aa46a40014610266576100f5565b8063095ea7b3116100d3578063095ea7b31461017857806323b872dd1461019457806342842e0e146101b05780636352211e146101cc576100f5565b806301ffc9a7146100fa57806306fdde031461012a578063081812fc14610148575b600080fd5b610114600480360381019061010f9190611c27565b610330565b604051610121919061206e565b60405180910390f35b610132610412565b60405161013f9190612089565b60405180910390f35b610162600480360381019061015d9190611cba565b6104a4565b60405161016f9190612007565b60405180910390f35b610192600480360381019061018d9190611beb565b610529565b005b6101ae60048036038101906101a99190611ae5565b610641565b005b6101ca60048036038101906101c59190611ae5565b6106a1565b005b6101e660048036038101906101e19190611cba565b6106c1565b6040516101f39190612007565b60405180910390f35b61021660048036038101906102119190611a80565b610773565b60405161022391906122ab565b60405180910390f35b61023461082b565b6040516102419190612089565b60405180910390f35b610264600480360381019061025f9190611baf565b6108bd565b005b61026e6108d3565b60405161027b91906122ab565b60405180910390f35b61029e60048036038101906102999190611b34565b6108df565b005b6102ba60048036038101906102b59190611cba565b610941565b6040516102c79190612089565b60405180910390f35b6102ea60048036038101906102e59190611c79565b610a93565b6040516102f791906122ab565b60405180910390f35b61031a60048036038101906103159190611aa9565b610aca565b604051610327919061206e565b60405180910390f35b60007f80ac58cd000000000000000000000000000000000000000000000000000000007bffffffffffffffffffffffffffffffffffffffffffffffffffffffff1916827bffffffffffffffffffffffffffffffffffffffffffffffffffffffff191614806103fb57507f5b5e139f000000000000000000000000000000000000000000000000000000007bffffffffffffffffffffffffffffffffffffffffffffffffffffffff1916827bffffffffffffffffffffffffffffffffffffffffffffffffffffffff1916145b8061040b575061040a82610b5e565b5b9050919050565b60606000805461042190612501565b80601f016020809104026020016040519081016040528092919081815260200182805461044d90612501565b801561049a5780601f1061046f5761010080835404028352916020019161049a565b820191906000526020600020905b81548152906001019060200180831161047d57829003601f168201915b5050505050905090565b60006104af82610bc8565b6104ee576040517f08c379a00000000000000000000000000000000000000000000000000000000081526004016104e59061222b565b60405180910390fd5b6004600083815260200190815260200160002060009054906101000a900473ffffffffffffffffffffffffffffffffffffffff169050919050565b6000610534826106c1565b90508073ffffffffffffffffffffffffffffffffffffffff168373ffffffffffffffffffffffffffffffffffffffff1614156105a5576040517f08c379a000000000000000000000000000000000000000000000000000000000815260040161059c9061226b565b60405180910390fd5b8073ffffffffffffffffffffffffffffffffffffffff166105c4610c34565b73ffffffffffffffffffffffffffffffffffffffff1614806105f357506105f2816105ed610c34565b610aca565b5b610632576040517f08c379a00000000000000000000000000000000000000000000000000000000081526004016106299061216b565b60405180910390fd5b61063c8383610c3c565b505050565b61065261064c610c34565b82610cf5565b610691576040517f08c379a00000000000000000000000000000000000000000000000000000000081526004016106889061228b565b60405180910390fd5b61069c838383610dd3565b505050565b6106bc838383604051806020016040528060008152506108df565b505050565b6000806002600084815260200190815260200160002060009054906101000a900473ffffffffffffffffffffffffffffffffffffffff169050600073ffffffffffffffffffffffffffffffffffffffff168173ffffffffffffffffffffffffffffffffffffffff16141561076a576040517f08c379a0000000000000000000000000000000000000000000000000000000008152600401610761906121ab565b60405180910390fd5b80915050919050565b60008073ffffffffffffffffffffffffffffffffffffffff168273ffffffffffffffffffffffffffffffffffffffff1614156107e4576040517f08c379a00000000000000000000000000000000000000000000000000000000081526004016107db9061218b565b60405180910390fd5b600360008373ffffffffffffffffffffffffffffffffffffffff1673ffffffffffffffffffffffffffffffffffffffff168152602001908152602001600020549050919050565b60606001805461083a90612501565b80601f016020809104026020016040519081016040528092919081815260200182805461086690612501565b80156108b35780601f10610888576101008083540402835291602001916108b3565b820191906000526020600020905b81548152906001019060200180831161089657829003601f168201915b5050505050905090565b6108cf6108c8610c34565b838361103a565b5050565b60078060000154905081565b6108f06108ea610c34565b83610cf5565b61092f576040517f08c379a00000000000000000000000000000000000000000000000000000000081526004016109269061228b565b60405180910390fd5b61093b848484846111a7565b50505050565b606061094c82610bc8565b61098b576040517f08c379a00000000000000000000000000000000000000000000000000000000081526004016109829061220b565b60405180910390fd5b60006006600084815260200190815260200160002080546109ab90612501565b80601f01602080910402602001604051908101604052809291908181526020018280546109d790612501565b8015610a245780601f106109f957610100808354040283529160200191610a24565b820191906000526020600020905b815481529060010190602001808311610a0757829003601f168201915b505050505090506000610a35611203565b9050600081511415610a4b578192505050610a8e565b600082511115610a80578082604051602001610a68929190611fe3565b60405160208183030381529060405292505050610a8e565b610a898461121a565b925050505b919050565b6000610a9f60076112c1565b6000610aab60076112d7565b9050610ab733826112e5565b610ac181846114bf565b80915050919050565b6000600560008473ffffffffffffffffffffffffffffffffffffffff1673ffffffffffffffffffffffffffffffffffffffff16815260200190815260200160002060008373ffffffffffffffffffffffffffffffffffffffff1673ffffffffffffffffffffffffffffffffffffffff16815260200190815260200160002060009054906101000a900460ff16905092915050565b60007f01ffc9a7000000000000000000000000000000000000000000000000000000007bffffffffffffffffffffffffffffffffffffffffffffffffffffffff1916827bffffffffffffffffffffffffffffffffffffffffffffffffffffffff1916149050919050565b60008073ffffffffffffffffffffffffffffffffffffffff166002600084815260200190815260200160002060009054906101000a900473ffffffffffffffffffffffffffffffffffffffff1673ffffffffffffffffffffffffffffffffffffffff1614159050919050565b600033905090565b816004600083815260200190815260200160002060006101000a81548173ffffffffffffffffffffffffffffffffffffffff021916908373ffffffffffffffffffffffffffffffffffffffff160217905550808273ffffffffffffffffffffffffffffffffffffffff16610caf836106c1565b73ffffffffffffffffffffffffffffffffffffffff167f8c5be1e5ebec7d5bd14f71427d1e84f3dd0314c0f7b2291e5b200ac8c7c3b92560405160405180910390a45050565b6000610d0082610bc8565b610d3f576040517f08c379a0000000000000000000000000000000000000000000000000000000008152600401610d369061214b565b60405180910390fd5b6000610d4a836106c1565b90508073ffffffffffffffffffffffffffffffffffffffff168473ffffffffffffffffffffffffffffffffffffffff161480610d8c5750610d8b8185610aca565b5b80610dca57508373ffffffffffffffffffffffffffffffffffffffff16610db2846104a4565b73ffffffffffffffffffffffffffffffffffffffff16145b91505092915050565b8273ffffffffffffffffffffffffffffffffffffffff16610df3826106c1565b73ffffffffffffffffffffffffffffffffffffffff1614610e49576040517f08c379a0000000000000000000000000000000000000000000000000000000008152600401610e40906120cb565b60405180910390fd5b600073ffffffffffffffffffffffffffffffffffffffff168273ffffffffffffffffffffffffffffffffffffffff161415610eb9576040517f08c379a0000000000000000000000000000000000000000000000000000000008152600401610eb09061210b565b60405180910390fd5b610ec4838383611533565b610ecf600082610c3c565b6001600360008573ffffffffffffffffffffffffffffffffffffffff1673ffffffffffffffffffffffffffffffffffffffff1681526020019081526020016000206000828254610f1f9190612417565b925050819055506001600360008473ffffffffffffffffffffffffffffffffffffffff1673ffffffffffffffffffffffffffffffffffffffff1681526020019081526020016000206000828254610f769190612390565b92505081905550816002600083815260200190815260200160002060006101000a81548173ffffffffffffffffffffffffffffffffffffffff021916908373ffffffffffffffffffffffffffffffffffffffff160217905550808273ffffffffffffffffffffffffffffffffffffffff168473ffffffffffffffffffffffffffffffffffffffff167fddf252ad1be2c89b69c2b068fc378daa952ba7f163c4a11628f55a4df523b3ef60405160405180910390a4611035838383611538565b505050565b8173ffffffffffffffffffffffffffffffffffffffff168373ffffffffffffffffffffffffffffffffffffffff1614156110a9576040517f08c379a00000000000000000000000000000000000000000000000000000000081526004016110a09061212b565b60405180910390fd5b80600560008573ffffffffffffffffffffffffffffffffffffffff1673ffffffffffffffffffffffffffffffffffffffff16815260200190815260200160002060008473ffffffffffffffffffffffffffffffffffffffff1673ffffffffffffffffffffffffffffffffffffffff16815260200190815260200160002060006101000a81548160ff0219169083151502179055508173ffffffffffffffffffffffffffffffffffffffff168373ffffffffffffffffffffffffffffffffffffffff167f17307eab39ab6107e8899845ad3d59bd9653f200f220920489ca2b5937696c318360405161119a919061206e565b60405180910390a3505050565b6111b2848484610dd3565b6111be8484848461153d565b6111fd576040517f08c379a00000000000000000000000000000000000000000000000000000000081526004016111f4906120ab565b60405180910390fd5b50505050565b606060405180602001604052806000815250905090565b606061122582610bc8565b611264576040517f08c379a000000000000000000000000000000000000000000000000000000000815260040161125b9061224b565b60405180910390fd5b600061126e611203565b9050600081511161128e57604051806020016040528060008152506112b9565b80611298846116d4565b6040516020016112a9929190611fe3565b6040516020818303038152906040525b915050919050565b6001816000016000828254019250508190555050565b600081600001549050919050565b600073ffffffffffffffffffffffffffffffffffffffff168273ffffffffffffffffffffffffffffffffffffffff161415611355576040517f08c379a000000000000000000000000000000000000000000000000000000000815260040161134c906121eb565b60405180910390fd5b61135e81610bc8565b1561139e576040517f08c379a0000000000000000000000000000000000000000000000000000000008152600401611395906120eb565b60405180910390fd5b6113aa60008383611533565b6001600360008473ffffffffffffffffffffffffffffffffffffffff1673ffffffffffffffffffffffffffffffffffffffff16815260200190815260200160002060008282546113fa9190612390565b92505081905550816002600083815260200190815260200160002060006101000a81548173ffffffffffffffffffffffffffffffffffffffff021916908373ffffffffffffffffffffffffffffffffffffffff160217905550808273ffffffffffffffffffffffffffffffffffffffff16600073ffffffffffffffffffffffffffffffffffffffff167fddf252ad1be2c89b69c2b068fc378daa952ba7f163c4a11628f55a4df523b3ef60405160405180910390a46114bb60008383611538565b5050565b6114c882610bc8565b611507576040517f08c379a00000000000000000000000000000000000000000000000000000000081526004016114fe906121cb565b60405180910390fd5b8060066000848152602001908152602001600020908051906020019061152e9291906118a4565b505050565b505050565b505050565b600061155e8473ffffffffffffffffffffffffffffffffffffffff16611881565b156116c7578373ffffffffffffffffffffffffffffffffffffffff1663150b7a02611587610c34565b8786866040518563ffffffff1660e01b81526004016115a99493929190612022565b602060405180830381600087803b1580156115c357600080fd5b505af19250505080156115f457506040513d601f19601f820116820180604052508101906115f19190611c50565b60015b611677573d8060008114611624576040519150601f19603f3d011682016040523d82523d6000602084013e611629565b606091505b5060008151141561166f576040517f08c379a0000000000000000000000000000000000000000000000000000000008152600401611666906120ab565b60405180910390fd5b805181602001fd5b63150b7a0260e01b7bffffffffffffffffffffffffffffffffffffffffffffffffffffffff1916817bffffffffffffffffffffffffffffffffffffffffffffffffffffffff1916149150506116cc565b600190505b949350505050565b6060600082141561171c576040518060400160405280600181526020017f3000000000000000000000000000000000000000000000000000000000000000815250905061187c565b600082905060005b6000821461174e57808061173790612564565b915050600a8261174791906123e6565b9150611724565b60008167ffffffffffffffff811115611790577f4e487b7100000000000000000000000000000000000000000000000000000000600052604160045260246000fd5b6040519080825280601f01601f1916602001820160405280156117c25781602001600182028036833780820191505090505b5090505b60008514611875576001826117db9190612417565b9150600a856117ea91906125ad565b60306117f69190612390565b60f81b818381518110611832577f4e487b7100000000000000000000000000000000000000000000000000000000600052603260045260246000fd5b60200101907effffffffffffffffffffffffffffffffffffffffffffffffffffffffffffff1916908160001a905350600a8561186e91906123e6565b94506117c6565b8093505050505b919050565b6000808273ffffffffffffffffffffffffffffffffffffffff163b119050919050565b8280546118b090612501565b90600052602060002090601f0160209004810192826118d25760008555611919565b82601f106118eb57805160ff1916838001178555611919565b82800160010185558215611919579182015b828111156119185782518255916020019190600101906118fd565b5b509050611926919061192a565b5090565b5b8082111561194357600081600090555060010161192b565b5090565b600061195a611955846122eb565b6122c6565b90508281526020810184848401111561197257600080fd5b61197d8482856124bf565b509392505050565b60006119986119938461231c565b6122c6565b9050828152602081018484840111156119b057600080fd5b6119bb8482856124bf565b509392505050565b6000813590506119d281612b29565b92915050565b6000813590506119e781612b40565b92915050565b6000813590506119fc81612b57565b92915050565b600081519050611a1181612b57565b92915050565b600082601f830112611a2857600080fd5b8135611a38848260208601611947565b91505092915050565b600082601f830112611a5257600080fd5b8135611a62848260208601611985565b91505092915050565b600081359050611a7a81612b6e565b92915050565b600060208284031215611a9257600080fd5b6000611aa0848285016119c3565b91505092915050565b60008060408385031215611abc57600080fd5b6000611aca858286016119c3565b9250506020611adb858286016119c3565b9150509250929050565b600080600060608486031215611afa57600080fd5b6000611b08868287016119c3565b9350506020611b19868287016119c3565b9250506040611b2a86828701611a6b565b9150509250925092565b60008060008060808587031215611b4a57600080fd5b6000611b58878288016119c3565b9450506020611b69878288016119c3565b9350506040611b7a87828801611a6b565b925050606085013567ffffffffffffffff811115611b9757600080fd5b611ba387828801611a17565b91505092959194509250565b60008060408385031215611bc257600080fd5b6000611bd0858286016119c3565b9250506020611be1858286016119d8565b9150509250929050565b60008060408385031215611bfe57600080fd5b6000611c0c858286016119c3565b9250506020611c1d85828601611a6b565b9150509250929050565b600060208284031215611c3957600080fd5b6000611c47848285016119ed565b91505092915050565b600060208284031215611c6257600080fd5b6000611c7084828501611a02565b91505092915050565b600060208284031215611c8b57600080fd5b600082013567ffffffffffffffff811115611ca557600080fd5b611cb184828501611a41565b91505092915050565b600060208284031215611ccc57600080fd5b6000611cda84828501611a6b565b91505092915050565b611cec8161244b565b82525050565b611cfb8161245d565b82525050565b6000611d0c8261234d565b611d168185612363565b9350611d268185602086016124ce565b611d2f8161269a565b840191505092915050565b6000611d4582612358565b611d4f8185612374565b9350611d5f8185602086016124ce565b611d688161269a565b840191505092915050565b6000611d7e82612358565b611d888185612385565b9350611d988185602086016124ce565b80840191505092915050565b6000611db1603283612374565b9150611dbc826126ab565b604082019050919050565b6000611dd4602583612374565b9150611ddf826126fa565b604082019050919050565b6000611df7601c83612374565b9150611e0282612749565b602082019050919050565b6000611e1a602483612374565b9150611e2582612772565b604082019050919050565b6000611e3d601983612374565b9150611e48826127c1565b602082019050919050565b6000611e60602c83612374565b9150611e6b826127ea565b604082019050919050565b6000611e83603883612374565b9150611e8e82612839565b604082019050919050565b6000611ea6602a83612374565b9150611eb182612888565b604082019050919050565b6000611ec9602983612374565b9150611ed4826128d7565b604082019050919050565b6000611eec602e83612374565b9150611ef782612926565b604082019050919050565b6000611f0f602083612374565b9150611f1a82612975565b602082019050919050565b6000611f32603183612374565b9150611f3d8261299e565b604082019050919050565b6000611f55602c83612374565b9150611f60826129ed565b604082019050919050565b6000611f78602f83612374565b9150611f8382612a3c565b604082019050919050565b6000611f9b602183612374565b9150611fa682612a8b565b604082019050919050565b6000611fbe603183612374565b9150611fc982612ada565b604082019050919050565b611fdd816124b5565b82525050565b6000611fef8285611d73565b9150611ffb8284611d73565b91508190509392505050565b600060208201905061201c6000830184611ce3565b92915050565b60006080820190506120376000830187611ce3565b6120446020830186611ce3565b6120516040830185611fd4565b81810360608301526120638184611d01565b905095945050505050565b60006020820190506120836000830184611cf2565b92915050565b600060208201905081810360008301526120a38184611d3a565b905092915050565b600060208201905081810360008301526120c481611da4565b9050919050565b600060208201905081810360008301526120e481611dc7565b9050919050565b6000602082019050818103600083015261210481611dea565b9050919050565b6000602082019050818103600083015261212481611e0d565b9050919050565b6000602082019050818103600083015261214481611e30565b9050919050565b6000602082019050818103600083015261216481611e53565b9050919050565b6000602082019050818103600083015261218481611e76565b9050919050565b600060208201905081810360008301526121a481611e99565b9050919050565b600060208201905081810360008301526121c481611ebc565b9050919050565b600060208201905081810360008301526121e481611edf565b9050919050565b6000602082019050818103600083015261220481611f02565b9050919050565b6000602082019050818103600083015261222481611f25565b9050919050565b6000602082019050818103600083015261224481611f48565b9050919050565b6000602082019050818103600083015261226481611f6b565b9050919050565b6000602082019050818103600083015261228481611f8e565b9050919050565b600060208201905081810360008301526122a481611fb1565b9050919050565b60006020820190506122c06000830184611fd4565b92915050565b60006122d06122e1565b90506122dc8282612533565b919050565b6000604051905090565b600067ffffffffffffffff8211156123065761230561266b565b5b61230f8261269a565b9050602081019050919050565b600067ffffffffffffffff8211156123375761233661266b565b5b6123408261269a565b9050602081019050919050565b600081519050919050565b600081519050919050565b600082825260208201905092915050565b600082825260208201905092915050565b600081905092915050565b600061239b826124b5565b91506123a6836124b5565b9250827fffffffffffffffffffffffffffffffffffffffffffffffffffffffffffffffff038211156123db576123da6125de565b5b828201905092915050565b60006123f1826124b5565b91506123fc836124b5565b92508261240c5761240b61260d565b5b828204905092915050565b6000612422826124b5565b915061242d836124b5565b9250828210156124405761243f6125de565b5b828203905092915050565b600061245682612495565b9050919050565b60008115159050919050565b60007fffffffff0000000000000000000000000000000000000000000000000000000082169050919050565b600073ffffffffffffffffffffffffffffffffffffffff82169050919050565b6000819050919050565b82818337600083830152505050565b60005b838110156124ec5780820151818401526020810190506124d1565b838111156124fb576000848401525b50505050565b6000600282049050600182168061251957607f821691505b6020821081141561252d5761252c61263c565b5b50919050565b61253c8261269a565b810181811067ffffffffffffffff8211171561255b5761255a61266b565b5b80604052505050565b600061256f826124b5565b91507fffffffffffffffffffffffffffffffffffffffffffffffffffffffffffffffff8214156125a2576125a16125de565b5b600182019050919050565b60006125b8826124b5565b91506125c3836124b5565b9250826125d3576125d261260d565b5b828206905092915050565b7f4e487b7100000000000000000000000000000000000000000000000000000000600052601160045260246000fd5b7f4e487b7100000000000000000000000000000000000000000000000000000000600052601260045260246000fd5b7f4e487b7100000000000000000000000000000000000000000000000000000000600052602260045260246000fd5b7f4e487b7100000000000000000000000000000000000000000000000000000000600052604160045260246000fd5b6000601f19601f8301169050919050565b7f4552433732313a207472616e7366657220746f206e6f6e20455243373231526560008201527f63656976657220696d706c656d656e7465720000000000000000000000000000602082015250565b7f4552433732313a207472616e736665722066726f6d20696e636f72726563742060008201527f6f776e6572000000000000000000000000000000000000000000000000000000602082015250565b7f4552433732313a20746f6b656e20616c7265616479206d696e74656400000000600082015250565b7f4552433732313a207472616e7366657220746f20746865207a65726f2061646460008201527f7265737300000000000000000000000000000000000000000000000000000000602082015250565b7f4552433732313a20617070726f766520746f2063616c6c657200000000000000600082015250565b7f4552433732313a206f70657261746f7220717565727920666f72206e6f6e657860008201527f697374656e7420746f6b656e0000000000000000000000000000000000000000602082015250565b7f4552433732313a20617070726f76652063616c6c6572206973206e6f74206f7760008201527f6e6572206e6f7220617070726f76656420666f7220616c6c0000000000000000602082015250565b7f4552433732313a2062616c616e636520717565727920666f7220746865207a6560008201527f726f206164647265737300000000000000000000000000000000000000000000602082015250565b7f4552433732313a206f776e657220717565727920666f72206e6f6e657869737460008201527f656e7420746f6b656e0000000000000000000000000000000000000000000000602082015250565b7f45524337323155524953746f726167653a2055524920736574206f66206e6f6e60008201527f6578697374656e7420746f6b656e000000000000000000000000000000000000602082015250565b7f4552433732313a206d696e7420746f20746865207a65726f2061646472657373600082015250565b7f45524337323155524953746f726167653a2055524920717565727920666f722060008201527f6e6f6e6578697374656e7420746f6b656e000000000000000000000000000000602082015250565b7f4552433732313a20617070726f76656420717565727920666f72206e6f6e657860008201527f697374656e7420746f6b656e0000000000000000000000000000000000000000602082015250565b7f4552433732314d657461646174613a2055524920717565727920666f72206e6f60008201527f6e6578697374656e7420746f6b656e0000000000000000000000000000000000602082015250565b7f4552433732313a20617070726f76616c20746f2063757272656e74206f776e6560008201527f7200000000000000000000000000000000000000000000000000000000000000602082015250565b7f4552433732313a207472616e736665722063616c6c6572206973206e6f74206f60008201527f776e6572206e6f7220617070726f766564000000000000000000000000000000602082015250565b612b328161244b565b8114612b3d57600080fd5b50565b612b498161245d565b8114612b5457600080fd5b50565b612b6081612469565b8114612b6b57600080fd5b50565b612b77816124b5565b8114612b8257600080fd5b5056fea2646970667358221220338140cd1e41d6a130ca728dec8e076ac05bce5f506b4bba9c028c7335c44c8b64736f6c63430008040033",
  "linkReferences": {},
  "deployedLinkReferences": {}
}